:020000041000EA
:2000000000B5324B212058609868022188439860D860186158612E4B0021996002215961F5
:200020000121F02299502B49196001219960352000F044F80222904214D00621196600F0AA
:2000400034F8196E01211966002018661A6600F02CF8196E196E196E052000F02FF8012127
:200060000842F9D1002199601B491960002159601A491B48016001219960EB211966A0210D
:20008000196600F012F8002199601649144801600121996001BC002800D0004712481349E4
:2000A000086003C880F30888084703B5996A04200142FBD001200142F8D103BD02B51866AC
:2000C0001866FFF7F2FF186E186E02BD00000240000000180000070000035F0021220000EA
:2000E000F4000018222000A00001001008ED00E000000000000000000000000074B24E7A3E
:2001000000200420F7010010C3010010C5010010C1010010C1010010C1010010C1010010A1
:20012000C1010010C1010010C1010010C7010010C1010010C1010010C9010010CB01001017
:20014000CD010010CD010010CD010010CD010010CD010010CD010010CD010010CD010010AF
:20016000CD010010CD010010CD010010CD010010CD010010CD010010CD010010CD0100108F
:20018000CD010010CD010010CD010010CD010010CD010010CD010010CD010010CD0100106F
:2001A000CD010010CD010010CD010010CD010010CD010010CD010010CD010010CD0100104F
:2001C00000BE00BE00BE00BE00BE00BEEFF30580103800BEF2EB8871148900103C890010E6
:2001E0003802001090A31AE71E481F49086006C881F3088810471D480068002801D01948FB
:20020000F3E70DA40ECC002902D000F012F8F9E71749184A002000E001C19142FCD1164921
:200220008847164988471649884700BEFDE701C901C29A42FBD370473C890010C00000204E
:20024000E4150020609E00100000042000000420609E0010001004200010042000000000B9
:20026000704700000000000008ED00E0000000D0E41500201C2800205547001041040010A4
:200280004D470010F8B5C046044B10B5002B03D00349044800E000BF10BDC04600000000EB
:2002A000B4270020E07F0010184B194A82B01A60184A44215A60184A9A60184ADA60184A87
:2002C0001A61184A5A61184A9A61184A9A836B46ED22DA71133ADA714F3ADA712932DA718D
:2002E000933ADA710B3ADA713132DA713132DA71123ADA71D971DA71002207331A701B7855
:200300000B4B01321A7002B07047C046E8150020445245414D7B526576657273691F446EA9
:200320004F4D7E6521492147756573733F7D00001128002010B50C4B82B01B78002B01D1B9
:20034000FFF7B2FF6B46D91D00230B70074B1C001E340A781878013342400A70A342F8D101
:200360000B7802B010BDC04611280020E8150020F0B5C646884600B58AB0254B01AD0A0069
:20038000040001002800099302F018FD2148099F04F072FC4346002B11DD2600651E203679
:2003A000454402E00134B44209D020780300203B5E2B00D92E2004F091FBAC42F2D10A20CD
:2003C00004F08CFB124B9F421ED0134804F0D0FB3900124804F050FC114B9F4206D011481D
:2003E00004F0C6FB0AB080BCB846F0BD01220E4B0E481A6004F0BCFB0D4804F0B9FB0D495D
:200400000D4804F039FCEDE70C4804F0B1FBE9E7EFBEADDE2C800010448000106880001006
:20042000BEBAFECABC800010A023002088800010A4800010980F0020B0800010E880001082
:20044000F0B5DE46574645464E46E0B5754CA54404F000FBFA20C00001F02CF9E12172483D
:20046000490201F08BFA0221002000F01FFB0221012000F01BFBFFF75DFF6C4B6C4C2193AF
:200480006C4B5AAD22936C4B23936C4B28936C4B9B466C4B209352AB9A466B4B2D936B4BFF
:2004A0004E936B4B4F936B4B4B936B4B29936B4B4C936B4B4D936B4B4A936B4B2C936B4BD4
:2004C00050936B4B51936B4BD8469946FA20C00001F0F0F8219804F0CFFB229804F048FBD1
:2004E000239804F045FB23680026986807F086F8289804F0C1FB23684746986807F07EF8F2
:2005000004F0ACFA0A2800D189E00D2800D186E0082874D07F2872D00300203B5E2BEFD85E
:2005200033004EAA94467133FF336344613BFF3B187004F0D3FA23680136986807F05EF80B
:200540001F2EDDD1B8461F264EAB9C4600237136FF366644613EFF3E33700A2004F0BEFA84
:20056000209804F089FB23680026986807F046F8474604F073FA0A283FD00D283DD00828C4
:200580002DD07F282BD00300203B5E2BF1D833004EAA94467133FF336344413BFF3B18704C
:2005A00004F09CFA23680136986807F027F83F2EDFD1B8463F264EAB9C4600237136FF367F
:2005C0006644413EFF3E33700A2004F087FA53461B684B4550D0299804F0CAFA76E7002EA3
:2005E000C7DD380004F048FB2368013E986807F005F804F033FA0A28BFD1B846DBE7002E59
:2006000000DC7DE7380004F037FB2368013E986806F0F4FF04F022FA0A2800D075E7B8461D
:2006200092E7C04654FDFFFF004003400481001094140020088100102C8100104C810010D9
:200640002880001058810010E07F00106C81001088810010B4810010DC8100100882001028
:2006600028820010A023002048820010508200107882001061646D6953469B886E2BAAD1AC
:20068000002315932B78002B00D1ECE1002604936B780596002B00D181E00499059A0A0243
:2006A000080E0C920D9016931796169A179B0C980D9980185941AB7804900591002B6ED0FF
:2006C000020E0F02174302021893079706921996069A079B1898199980185941EB7804903E
:2006E0000591002B5BD0020E0F02174302021A93099708921B96089A099B1A981B998018B3
:2007000059412B7904900591002B48D0020E0F02174302021C930B970A921D960A9A0B9BC5
:200720001C981D99801859416B7904900591002B35D0020E0F02174302021E930F970E9269
:200740001F960E9A0F9B1E981F9980185941AB7904900591002B22D0020E0F021743020208
:200760002493119710922596109A119B2498259980185941EB7904900591002B0FD0020E13
:200780000F02174302021292139726932796269A279B1298139912184B41049205930498CE
:2007A0000599FA220023920001F0B2FC93464422190058460023FF32159101F0A9FC100095
:2007C000190017001E0002F089FA44220023FF3201F09EFC1000190002F080FA44220023F3
:2007E000FF3201F095FC100019003A00330002F075FA44220023FF3201F08AFC7B20002162
:200800001600029003911F00009201935A462900159B2D9804F030FA7B2E00D0DBE6002F92
:2008200000D0D8E64E9804F0A3F94F9804F0A0F90522002300920193442200234B98FF3233
:2008400004F01AFA2B78C346002B00D126E12A936B782B97002B00D181E02A992B9A0A028E
:20086000080E349235903C933D973C9A3D9B3498359980185941AB782A902B91002B6ED0B8
:20088000020E0E02164302023E932F962E923F972E9A2F9B3E983F9980185941EB782A9020
:2008A0002B91002B5BD0020E0E02164302024093319630924197309A319B40984199801895
:2008C00059412B792A902B91002B48D0020E0E02164302024293339632924397329A339BCE
:2008E00042984399801859416B792A902B91002B35D0020E0E02164302024493379636929D
:200900004597369A379B4498459980185941AB792A902B91002B22D0020E0E021643020239
:200920004693399638924797389A399B4698479980185941EB792A902B91002B0FD0020EDD
:200940000E02164302023A923B9648934997489A499B3A983B9912184B412A922B932A9874
:200960002B99FA220023920001F0D2FB100044221900FF32002301F0CBFB1000190090468B
:200980001F0002F0ABF944220023FF3201F0C0FB1000190002F0A2F944220023FF3201F0DB
:2009A000B7FB1000190042463B0002F097F944220023FF3201F0ACFB4C9804F05DF94D98B2
:2009C00004F05AF923680026986806F017FE6AAB98461F000123994604E001363870013704
:2009E000FF2E54D004F03AF8431C0E2BF5D82E4ADA4013004A461A42EFD070224EAB9B188D
:200A0000002215969A55002E1BD0159910228C466AAB5F1E674494466AAB6344994623007A
:200A20004E463C0099464746884639782C9804F023F9A74202D00137BE42F6D143464C4652
:200A400015930A2004F04AF815996AA8FFF790FC4A9B1B68002B13D100224A9B64201A60D0
:200A600000F028FE2FE57B22002302920393002200232900009201932D9804F0FDF8AAE591
:200A8000509804F075F8519804F072F8E4E770224EAB9B18002215969A55B6E7002200231F
:200AA0002A922B935BE7C04601480000094A83009A1810B514684022544080322240064C06
:200AC000C000A44663441A60044B9C466044416010BDC04604C0014004D001400040014067
:200AE0008023DB051868000F7047C0460FB400B5084883B004F03CF8049B002B07D005A9B5
:200B00001800019103F0C2FD034804F031F8012003F0D4FDB8820010C882001070B5EFF381
:200B2000108C72B60D4D2B68002BFCD0BFF35F8F0724CB08C618C05C01230C40A3401C0006
:200B40000440034207D118433070BFF35F8F2C608CF3108870BD1000FFF7C8FF2C0100D0FF
:200B6000F8B54746CE46884680B5EFF3108C72B61C4D2C68002CFCD0BFF35F8F9A4222D813
:200B800007210126894602E00132934218D34D4637001540AF40D4080119045D2742F3D1D0
:200BA00010003C430C70BFF35F8F00220D4B1A608CF3108800280EDBC0BCB946B046F8BD48
:200BC00001204042EFE7BFF35F8F00232B608CF31088012040424346002BEDD00898FFF78D
:200BE00085FFC0462C0100D0044A1078431CDBB2172B00D9102313707047C046BC0F002033
:200C000010B5064B064C82B00100009318221F232000FFF7A5FF02B010BDC046CC8200108D
:200C2000382300200021044B044ABFF35F8F02C39342FAD17047C046000100D0800100D097
:200C4000054B064A1360064A136053609360D36013615361936170478080808000E400E04E
:200C600004E400E01F2318401E3B8340002905D0C021044A490053501360704780220149C7
:200C80008B50FAE700E100E001228240034B1B6813405A1E9341D8B27047C04600E100E07A
:200CA00001238340014A13607047C04600E200E0064B10309B688000C358054A00209B1ABD
:200CC0002F229A424041C0B27047C04600ED00E0C00F002070B50D00EFF3108672B60F4A50
:200CE0001368002BFCD0BFF35F8F0D4B10309B6884001B590B4A934203D09D4201D001F0B1
:200D0000C3F8074B9B681D51BFF35F8FBFF35F8F0022024B1A6086F3108870BD240100D0F9
:200D200000ED00E0CD010010F0B557464E46DE464546E0B585B0060000911700EFF3108B8E
:200D400072B66A4A1368002BFCD0BFF35F8F0025674B5D579A46002D00DAA9E06B00654C8E
:200D600001935B199B009846A146C1444B4652469B7910361370604BB6009B6899590B1B84
:200D80002F2B33D95D4B994200D0ACE0019B42469C465B4B6544AD0063535A4B0232A218C3
:200DA000043B9B1A1B05584A5B0D651913436B80564B0121AB80FF23AB71009BEF71AB6024
:200DC0004B460B4319004C4B9B689951BFF35F8FBFF35F8F0022454B1A608BF3108805B060
:200DE000F0BCBB46B246A946A046F0BD01200A008243D3798C46BB4231D84546130044498D
:200E00001B1B5B415943090D3D4B63533D4B02356519043B5B1B1B053B4D5B0D2B43AA46B0
:200E20004D466B800425AC465546E044131F44441B1B1B055B0D1D434B46997100999D8031
:200E400099604946DF71334B01431360BBE75800C01880002018C179B9422FD90200062393
:200E6000D356002BF3DA02932B4B61460393131D9A4604235B429C46E14450464B461B1AD2
:200E80001B055B0D9C46204B957198466346404603439380019B5A199200039BA418A380F3
:200EA000029B1C4AA371009B2260E771A3608AE700F0EAFF002553465D574FE79088029304
:200EC0004005131D9A46031561469C464046D444634604302018181AE0230005400D1B02C5
:200EE00018430390C5E700F0CFFF4FE7240100D016280020C00F002000ED00E0CD01001077
:200F000000A1FFFFF00F002000E0FFFF01BDFFFFAAAA00000148804701BD000070B501240D
:200F20000443EFF30581EFF3108C72B6214A1368002BFCD0BFF35F8F1F4B05001F4AED1A00
:200F40006D416A43120D1E4D8900AE6852B27658A6421CD00621595691421CD012215956F0
:200F6000914222D01E215956914220D02A2159560324914210D0134B19781A708171BFF30A
:200F80005F8F00220B4B1A608CF3108870BDAB680D4C5C50EFE700246100091989005B189C
:200FA000FF21997109499980E5E70124F4E70224F2E7C046240100D0C00F0020AAAA000093
:200FC00000ED00E016280020CD01001001BDFFFF10B5084B084C82B00100009300220523D0
:200FE0002000FFF7BDFD002801DB1F23181A02B010BDC046E88200101A280020024B9C4619
:2010000061448900016070474000003470B5114C114DAC420FD2FF262368002B0CD0FFF7BA
:20102000E3FD01002000FFF7E9FFA680BFF35F8F0834AC42F0D370BDFFF7D6FD0100200007
:20104000FFF7DCFF2671BFF35F8F0834AC42E3D3F1E7C046DC150020E415002010B50400D7
:20106000FFF7C2FD01002000FFF7C8FFFF232371BFF35F8F10BDC04610B504000120FFF7D4
:20108000BFFD034BC3189B002360BFF35F8F10BD40000034034B9C46614489000160BFF3FB
:2010A0005F8F7047400000340A4B1968EFF3108072B60A68002AFCD0BFF35F8F1B68BFF36A
:2010C0005F8F00221A6080F3108840BF002000217047C046F0270020F0B5DE4657464E464D
:2010E0004546E0B587B0EFF30583032201251A40954091008846A946B34B03925C58B34B22
:201100001D60B34B04934B46B24843630823E55E002D37DAA3881BB2002B00DBADE0A37939
:20112000002B00D0EEE00823E05E002820DB430062691B18DB00D3189E68DD68731C00D1A8
:2011400011E1A44801004144826A0B69B71A9B1A9F4215D30123026A039883401A420FD053
:201160009C4800F0B5FB8D4202DCCCD18642CAD940BF07B0F0BCBB46B246A946A046F0BD59
:201180000E61EDE762696B0092465B19DB009A4453469E68DF6800F09BFB8F42BADC00D12D
:2011A00003E1002F00DAE8E05246534652691B699346049A934200D1D9E052460821605EB5
:2011C00052880004594610439847009001910099019A0B001000134300D1CEE013000A00FD
:2011E000B61A9F41002806DB7A4800F071FB009E019F36184F4153469E60DF6000229A5E0C
:20120000002A00DA86E7530099186069C900411802938B68C9689B46B94200DD7AE702D1C8
:20122000B34200D976E708239C46A444059565462281A446029B2C0006E053009918C90040
:2012400041188D68C968AB469B18DB00C318B94206DC00D1B3E01C000023E25E002AECDA05
:20126000230064469C4653461A806346059D1D80A3881BB2002B00DA51E72269EFF3108171
:2012800072B61368002BFCD0BFF35F8F0123A7885B42A3803FB22369BFF35F8F00221A6048
:2012A00081F31088002F00DA39E72300083322009A4666697B00DB19DB00F31899685046DE
:2012C0008C460824115FDD68002910DB029306E0AB4244D00023E15E2000002906DB4C00F3
:2012E0006418E4003419E368AB42F1DD029B078000201F5E1980002FDCDA1400A379002BA1
:2013000000D110E70023A37126000823E15E08364B1C00D12CE70800A246656902E03E00D7
:201320004B1C1AD04B005B18DB00EF180A008C46E95E7B881BB2002BF1DA01235B42DC171F
:20134000BB60FC60824205D0534631801B893B8053461A8160464B1CE4D15446E5E6A3686E
:201360006345B7D9C2E76B1C00D0EAE6F8E65B4658461B69984700281BD153461B8822690A
:201380002381EFF3108372B611680029FCD0BFF35F8F514662880A8022696580BFF35F8FE3
:2013A0000021116083F31088B4E6864200D8F8E6B0E65B461A685B680092019307E7B345ED
:2013C00000D848E74CE7C046D42700203C700540D91000100040054070B52E4C2569002DE9
:2013E00004D00A212C48FFF709FE70BD2B4E0321300000F063FAE660FFF7F6FB284B032271
:201400009C46D02322701B061B6801216370254B6044A3600F2380002061022063806369B1
:201420004942A18019800231198647311D83585218315A5275325C39995218320131995250
:20144000183201319952183201319952083518329D5202311832995218320131995218322F
:20146000013199521832013199521832013199521832013199520C4B0C49DC60013035626A
:20148000FFF728FC01210320FFF7ECFB084B1D60A7E7C04608100020F027002000400540B8
:2014A00040000034FFFF1000D4270020D9100010386005400048704708100020F8B51F00B6
:2014C00008AB1B7804001600002B08D100F008FA32003B00121A8B41002B00DA52E022698F
:2014E000EFF3108072B61368002BFCD0BFF35F8F0223E15E63694A005218D2009B1822694C
:20150000002936DB1D886580BFF35F8F0025156080F31088069A9E60DF601A61079A5A610E
:201520005A8801325204520C101C002A1FD082B25880080410432669EFF3108772B6326868
:20154000002AFCD0BFF35F8FA2881A80A1802369BFF35F8F00221A6087F310880A49237848
:201560008C4601329A40E36863441A60F8BD0120DDE7BFF35F8F0023136080F31088012024
:201580004042F3E70020F1E73C20000070B501000469EFF3108C72B620680028FCD0BFF334
:2015A0005F8F02200D5E4C6968004019C00024180869002D36DB26884E80BFF35F8F00264D
:2015C00006608CF31088E36063880498013320615B0405985B0CA26060611A1C002B1FD099
:2015E00093B22804628018430A69EFF3108C72B61368002BFCD0BFF35F8F8B8823808D804F
:201600000B69BFF35F8F00221A608CF310880B7801329A40CB6808498C4663441A6070BDCF
:201620000122DDE7BFF35F8F002303608CF3108801204042F3E7C0463C20000010B5438916
:201640000A1493421ADD53009B184269DB00D3180469EFF3108C72B62268002AFCD0BFF3E4
:201660005F8F5A88090494B2090C8A4208D00369BFF35F8F00221A608CF31088002010BDE2
:201680008022120214435C80012302698371BFF35F8F002111608CF31088044902788C46FC
:2016A0009340C268012062441360E8E73C20000040787047F0B5C64600B582B0040000F0CD
:2016C0000FF9FA2206000F00200000230021920001F004FB8019794104000D1E02DA012468
:2016E0002E4D644206267642F71736196F41AF4214D811D000F0F4F832003B00121A8B41D9
:20170000002B15DC002B46D02000290000F026F902B080BCB846F0BDA642EBD90026002782
:2017200000F0DEF832003B00121A8B41002BE9DD00F0D6F832003B00121A8B41002B0ADB5A
:2017400000230193164B3200009316483B00FFF71DFF0130D8D000233900B0469C46124A98
:201760001248536A994204D8966AB045CCD99942CAD10668EFF3108772B63368002BFCD0EA
:20178000BFF35F8F0368BFF35F8F66461E6087F3108820BFE5E7002AB6D0C9E7FFFFFF7FDB
:2017A000A91000100810002000400540F0270020F0B557464E46DE464546E0B506000F003D
:2017C00085B0EFF3058399468B46002B12D0384900204B6ABB4206D38A6ADB1B591E8B4154
:2017E000B2424041184305B0F0BCBB46B246A946A046F0BD2F4B9A46DB68984653461B7896
:201800004046039300F064F84246039B040004339B009B580D001B1A39003000001BA941C1
:20182000894510DC0DD020BF214A0020536A5B45D9D3926ADB1B591E8B41B2424041184399
:20184000D1E78342EFD900F04BF832003B00121A8B41002B1ADB00230193174B32000093AD
:2018600050463B00FFF792FE011E0FDD104B5A6A5A451BD39B6AB34216D35046FFF7DEFE0F
:201880000B4A0020536A5B45ADD3D2E7084A0020536A5B45A7D30020926ADB1BB24240416D
:2018A0005A1E934118439EE75A45E6D120BFE4E70040054008100020A910001010B5024A65
:2018C0000248FFF72BF910BD048300103C2300200300416A0A00986A596A8A42FAD17047F6
:2018E000034B596A0A00986A596A9142FAD170470040054070B504000D00174A536A1900C1
:20190000966A536A8B42FAD13000190024184D41AB4216D813D0104B2A005B6A9D4203D99C
:201920000D494B6A9342FCD3934207D10A4A02E0516A994202D1916AA142F9D370BDA642ED
:20194000E9D9054B5B6A1C005A1CEFD0012201246442E5175242E3E700400540064A536A85
:201960009942FCD807D1044B02E05A6A914202D19A6A9042F9D8704700400540F8B50400B1
:2019800006200D0000F078F9002844D0374B3849E3185A1E93418022120494465B429B0D56
:2019A000344A9B0563441360334A136018000A689043FBD12D4B314AE31859424B41802120
:2019C0005B0049000620995200F056F92900C00000F060FB0130C3091ED1402701226262A5
:2019E000A362266BF30722D4E36A254B0620E51800232B60266300F03FF93900800000F079
:201A000049FB7023E26A5A400E3313402B601D4B23630323A364F8BD1B4A93421ED90023C6
:201A20001A4A1B4F6262A362266BF307DCD5194B144AE3181A60656AA36A0620AD01ED18E7
:201A400000F01AF9144900F025FBAD020100280000F020FB0021FFF74DFFC5E74006800E50
:201A60009F011A003F180300B9E7C0460080FCBF08C0004000E0004000F00040FC270020D6
:201A80002C10000001030000FEFF0000FFFF0000C0FF3F00303000004E0E0000F8B5DE4680
:201AA0004E4657464546E0B58B4605000A991800160000F0EFFA0A9B6C001F02324B641929
:201AC0009C46A4006444636881469F4200D967602B1FDBB29846012B30D9C02380229B01BA
:201AE000E31812011A60294BAD0059599A4600291BD17301E026226853401E408023424676
:201B00005B01E3181E60012A30D9802380229B01E31812011A6053464A4667605A51F0BC0C
:201B2000BB46B246A946A046F8BD586900F0B2FA013043001B18033BFDD2DAE75B46012B83
:201B4000CBD1C02303229B01E3181A60023AA3681A42FCD07301E0262268AD0053401E40BF
:201B600080230A4A5B019246E3181E605A462168514003220A401A6001225B469A40A36875
:201B80001A42FCD0C1E7C0460080004040230020F0B546464F46D646C0B51F00344B4400F3
:201BA0009C462418A4006444636888461600FF2B02D880235B006360031FDBB29A46012B8C
:201BC00030D9C02380229B01E31812011A60294B85005959994600291BD17301E0262268B0
:201BE00053401E40802352465B01E3181E60012A30D9802380229B01E31812011A608023A4
:201C00005B0063604B465F51E0BCBA46B146A846F0BD586900F03EFA013043001B18033B69
:201C2000FDD2DAE74346012BCBD1C02303229B01E3181A60023AA3681A42FCD07301E026C1
:201C40002268850053401E4080230A4A5B019146E3181E6042462168514003220A401A6056
:201C6000012342469340A2681342FCD0C1E7C0460080004040230020014B8000C05870472E
:201C800040230020F8B5040021481E0017000D0000F000FA0100380000F0FCF9069B360482
:201CA0001B031E432368002B20DB1A4B1A49E3185A1E93418022920194465B421B0B174AB2
:201CC0001B0363441360164A13601F000A689743FBD1144B2560E2182123A06013602368A2
:201CE000002BFCDA0823E6601360F8BD3F2322681340AB42D9D1A3681B051B0D8342D4D1B7
:201D0000EE22E368D2021340B342CED1EDE7C046001BB7000040FDBF08C0004000E00040DD
:201D200000F000400430000010B580241C4BE4051C6000281AD001231A4C18431A4BDC6171
:201D40001A4C44401C62596298628021144BC9051960174817490860E021C9041960002A87
:201D600007D18022144B12061A6010BD0E4BD861EBE753019B1A9B009A18802312015B045C
:201D80009A4209D213000D490B60074B5A608022094BD2051A60E8E7094B1A00F3E7C04648
:201DA00000B00540D3C007B0008005402D3FF84FFCFF01000820014000A00540AC2700202F
:201DC000FFFFFF008023024A9B000B43D362704700800540002310B50100988A1B8B9847ED
:201DE00010BDC046162310B50100188802331B88984710BDF8B54746CE4680B50F1E18D055
:201E000014239946043304000025012698464B461888434621681B88984701C4431E984183
:201E200001350640AF42F2D13000C0BCB946B046F8BD0126F8E7C046002370B504000D00B7
:201E4000988A05491B8B984703000020002C01DB0130A0402900984755420000AA23064A95
:201E60001B0113608D235B00D3600449044B19605368002BFCDA70470040024000B0FA00E1
:201E8000006002407047C04610B50148FEF72EFE2883001070B5074D074EB54209D2002435
:201EA000013E761BB60808CD984723000134B342F9D170BD987F0010D47F0010054B064A72
:201EC00006491A60064A074B1A6010000B689843FBD1704700E00040BFCDFBFE08C000408F
:201EE000FE7F3C0000F00040044BDB6C002B03D18022034BD2021A607047C0460000115008
:201F00004C201150044A054B1A60054A1368DB018033FBD17047C046FFFFFF0100F00040CC
:201F200008C000404022034B9A675A671A67DA667047C04600F0014010B5FEF773FE10BD80
:201F400070B5044D044CA968C022200000F036FFAC6070BD00ED00E000000020002310B575
:201F6000294C82B0A367FFF779FF0122274B1A60636C012BFCD10322254B1A60224A936BF2
:201F8000012BFCD1013300930121224A22480433FFF778FE052301210093204A2048FFF741
:201FA00071FE0022022104201E4BFFF7F1FD0022012105201C4BFFF7EBFD002200210720E4
:201FC0001A4BFFF7E5FD002200210820174BFFF7DFFD8023DB000093002200210920134B4A
:201FE000FFF75CFD0022104B00210620FFF7D0FD0420FFF741FE0E4900F04CF80100002006
:20200000FFF7E0FE02B010BD008000403CB0004030B00040002F685900800240008C864756
:2020200000C00240001BB70040597307006CDC0240420F0001480421014B18472010002075
:20204000F51D0010124A936F9B0815D29066D166002905D0FFE7FFE7FFE7516F106F7047A3
:2020600004B580210906C2175140002800D0C84305F05AFF002104BDF0B5146E556E576FAA
:20208000166FFFF7E3FF1466556657671667F0BD000000D0114A936F9B0813D210665166E4
:2020A000002905D0FFE7FFE7FFE7516F106F704704B5002801D00020C04305F035FF00215B
:2020C00004BDC046F0B5146E556E576F166FFFF7E5FF1466556657671667F0BD000000D03D
:2020E00094464A4A926F9208624601D228E0C046F0B5464E346E756E776F366F00F020F8FD
:202100009446424A14665566576716676246F0BD94463E4A926F9208624601D254E0C046E2
:20212000F0B53A4E346E756E776F366F00F04CF89446364A14665566576716676246F0BD0F
:20214000002B24DB11D000293EDA00B5C943404200D1013100F038F8C943404200D101313C
:20216000DB43524200D1013300BD002AEBD1002801D1002905D00020C90FC90701D1C04370
:20218000410800B505F0B8FE0022002300BD00B500290ADBDB43524200D1013300F014F81E
:2021A000C943404200D1013100BDC943404200D10131DB43524200D1013300F005F8DB437E
:2021C000524200D1013300BD002923D1002B18D1002A0CD0BC460D4F38667A660021002352
:2021E000FFE7FFE7FFE77A6F386F67467047002801D00748010000B505F07EFE0022002385
:2022000000BD02000B00002000217047000000D0FFFFFFFF002B00D0BFE0130C28D1002A54
:20222000E7D080B4114F39667A66FFE7FFE730B4040C7B6F396F1B0423433B667A66FFE796
:20224000FFE7FFE7C04684B27B6F3D6F1B0423433B667A66FFE7FFE7C04600232C042D0C7C
:202260007A6F386F00196941B0BC7047000000D0F0B594460025140E01D112020835140F0C
:2022800001D112010435940F01D192000235D40F01D152000135D40B0134254F7C66254CCA
:2022A0003C660E0C93B2FFE7FFE7FFE73C6F6643360C7703BE467343DF0B5B04C01AB94184
:2022C000130C7343DB18C91ACE086643360CB64493B273431F0F1B01C01AB941130C7343AA
:2022E0001F0B1B05C01AB941860D8F023E436643360C092D24DB520A7243801A7703460A86
:202300006643360C16235B1BDE40DF40BF1964466643821B7046043506330100D940A840F4
:20232000C01900D30131A24206D20023F0BD0000000000D0FFFFFFFF121B0130F3D3F1E76B
:2023400009277F1BFE406446A2B27243801A00D20139220C7243130C1204821A99410B0083
:202360007046043513370100F940A840801900D30131002B02D1A2420AD2F0BD013000D3F5
:202380000131121BFAD2013BF8D1A24200D2F0BD013000D30131121BF7E7F0B51C0C00D0CC
:2023A00080E00CB400251C0A04D11B02160E3343120208351C0B04D11B01160F334312010F
:2023C00004359C0B04D19B00960F334392000235DC0B02D192185B4101351C009718644123
:2023E0000134464F7C66464C3C660E0CFFE7FFE7FFE7C0463C6F6643360C7703BE4697B2CE
:202400007743C01B00D20139C01B00D201399FB27743C91BC91B170C77437E04FF0B801B5D
:20242000B941CE086643360C0C2D33DBB644120B1F053A431B0B97B27743C01B00D20139D2
:202440009FB27743C91B170C77433E043F0C801BB941860D8F023E43664329277F1BFE4018
:202460000C3D7746AF40BF1930BCA2B2ABB272437343801A9941220C7243130C1204801A61
:20248000994102000B000137001BA941F9D2781E0021F0BD0C277F1BFE4077467F0BAF40A8
:2024A000FF19E0E700245D1C07D0144F7D663966FFE7FFE7FFE7FFE73C6F95B29EB2654362
:2024C0006643401BB141150C1E0C6543664336042F0C3E432D04401BB141994204D2020043
:2024E0000B0020000021F0BD01D19042F7D3801A994101349942F2D3F6E70000000000D07F
:20250000FFFFFFFF48404140484018B41B4B5B68FC46019308BD04DFAF27001018B4174BA7
:202520001B68FC46019308BD00DFB92700109446134A926F920809D2624618B40F4BDB68F0
:20254000FC46019308BD0CDF712A00100C4AF0B5146E556E576F166F6246FFF7EEFF084AE2
:202560001466556657671667F0BD18B4034B9B68FC46019308BD08DF15290010901700208A
:20258000000000D0FFB550404240504059404B40594000E0FFB5154F4C00640D03D0BC42D2
:2025A00004D10C0314D80020090D09055C00640D03D0BC4204D11C030AD800221B0D1B0529
:2025C00001264B4009D44B4003D58B4200D18242FFBD9942FCD19042FFBD0B43DB1803432E
:2025E0001343F5D0C9434918FFBD0000FF07000000B5FFF7CFFF804100BDC04600B5FFF7E9
:20260000C9FF01D9002000BD012000BD00B5FFF7B9FF01D9002000BD012000BD00B5FFF7BA
:20262000B1FF804100BD012040054A00121804D85A00121801D800207047012070470000AA
:202640000021002805D17047C1174840401AFAD0C90713B5064B1B6898470CBC441CA240CB
:202660001005120B0349091B09051943114310BDEC2700201F04000010B54C00620D8023B4
:20268000D218DB00D21A5B057E2A10DD9E3A13DACC170903490819435242D14064000134F5
:2026A0001532202A05DAD0400843604310BD002010BD0846604310BDC80FC018013810BD7F
:2026C00018B4044B5B6AFC46019308BD24DF212C0010000090170020132370B51D78012D3A
:2026E00019D014DD1F48FFF77DFB06001E48FFF779FB1E4C80223100200000F05FFB022D7F
:202700002DD01B48FFF766FB1A4B186070BD1A4B164CA364F5E7184B144C23606360A36042
:20272000E36023616361A361E36123626362A362E36223636363A363E36323646364A36445
:20274000E36423656365A365E36523666366A366E36623676367A367E367A364D1E7064B36
:20276000A364CEE75344000053460000901700204C330000EC2700207D27001007B56046DE
:2027800001880A0A0230DF2AFAD1C9B2820804D3028840880004104300E00068014A5050DE
:2027A000039007BD901700200FB403BC0CBCF0B50124E407634000E0F0B50C0DCF0F661E59
:2027C0003605891B640503D3C943404200D30131640D03D0661CF60A07D0E41B00207F000D
:2027E000791C89078912803C24031D0DDF0F6E1E36059B1B6D0503D3DB43524200D30133A0
:202800006D0D03D06E1CF60A07D0ED1B00227F007B1C9B079B12803D2D032F1B661B58D497
:20282000A446202E46DA20371400BC401D00BD40F24033412A4380185941CB0F05D0C943BF
:20284000C043002264425041514162464D0D28D10D0D07D100281FD0241940414941013A03
:202860000D0DF9D0640006D3013000D30131002C01D140084000013A0BD4941CE40A04D1EF
:2028800012051144DB071944F0BDD907204B194300E0D9070020F0BD0029DDD1002CDBD1FD
:2028A000F0BD0132C6074008CD0728434908002EE1D0D9E73C2E29DA203E40371400BC40A2
:2028C00000D00124F24014431A00BB401C43D317ACE7AC46202F08DA20360400B4400D000B
:2028E000B540F84039412843A5E73C2F0CDA203F40360400B44000D00124F84004430800A0
:20290000B1400C43C117EAE710001900002494E70000F07FF0B50C0D661E3605891BE60A86
:202920006405640D02D0651CED0A04D0002001210905803C2403A4461C0D671E3F05DB1B9A
:20294000E70A6405640D02D0651CED0A04D0002201231B05803C24037740644497B484B265
:2029600096B27443070C7E43150C6F4380B26843361802D3012000043F183004350C0019A7
:202980007D41844688B29AB250430C0C62431F0C7C438EB27E43921902D301263604A41950
:2029A0001604170C3618674101BC81B29AB25143040C62431B0C5C4380B25843121802D3CD
:2029C0000120000424181004130C401863412D185E410020474106BC88B293B258430C0CE7
:2029E0006343120C544389B251435B1802D301210904641819041A0C091862416D18564197
:202A00000020474118BCF902720D1143F0026A0D1043ED020A0D03D16D1940414941013B09
:202A2000124E9B1B7600B3420ED26D0007D30130002671416646354301D1400840001B0547
:202A4000C918E4072144F0BD0BDA013306D1013004D101314F0D01D04908F2E7E107002011
:202A6000F0BD013631050020EBE70000FF030000F0B51C0D671E3F05DB1BE70A6405640DF0
:202A800002D0661CF60A04D0002201231B05803C2403D0252D060026F6432E661E096E66AF
:202AA000CE0FF619B44649004F0D02D07E1CF60A03D000200021403F3F033E1BB600B44443
:202AC000013F7F05C91B49082E6F013676089C02950D25437543ED137543AD1301356D1020
:202AE000F603761B0CB4CC02450D2C43A2B2B3B25A43270C7B43350C6F43A4B26C431B198A
:202B000002D3012424043F191C041D0CA4187D4124196D41009A91B2ACB26143170C7C43CC
:202B20002B0C5F4392B25A43A41802D301221204BF182204230C52187B41019C6C431B193F
:202B4000520ED9010A434401A01A81B2B2B2514303145A43360C734387B27743D617D2194D
:202B600000277E4136049B191704160C7F185E417316ED18F301002680337541A90F06D16E
:202B80006400690AE8055B0A184309D22FE00422944480337541A90AA8059B0A184326D307
:202BA000404149412404009A019B0D005543641B4343E41A95B286B27543170C7E43030CDA
:202BC0005F4392B25A43B61802D301221204BF183204330C52197B4152429C41002C02D4B0
:202BE0000022013051414008CA071043490802B06246D7079210084BD218084B9A4203D218
:202C000012058918C919F0BD0020002A01DC3900F0BD01331905F5E7FD030000FE0700002D
:202C2000002200B5203200F004F8080000BD000000220B150AD410B5944600F031F81414BA
:202C4000013400DA0021CB17144C20470020002170476244343A0CD40C2A07DA04009140C3
:202C6000904052422032D440214310BDD843D94310BD203207D40C469440524220321141CA
:202C8000D040204310BD0800C917203203D452422032104110BD1800190010BD532C001052
:202CA0000A0DCC0F531E1B05C91A520503D3C943404200D30131520D03D0531CDB0A07D091
:202CC000121B00206400611C89078912803A1203014BD21A70470000FF03000051434343C1
:202CE000C9188C46110C83B24B4310B4040C614392B280B2504362431C041B0C001910BCEF
:202D000059411304120CC0185141614470470000132310B512481C78FFF764F80100012CB5
:202D20000AD003DD80220F4800F048F80E48FFF751F80E4B186010BD0A4C5422200000F0A1
:202D40003DF80B4B6365A365E36523666366A366E36623676367A367E3672362E361E5E7EF
:202D600053460000901800204C330000EC270020752D001007B5604601880A0A0230DF2A54
:202D8000FAD1C9B2820804D3028840880004104300E00068014A5050039007BD9018002091
:202DA00001480421014B184730100020F51D0010014B1B681847000030100020014B5B68DB
:202DC00018470000301000207047C046F8B55746DE464E464546E0B599460A9B07009A46EA
:202DE0000D9B884693460B9C9B073BD10C9B9C423DD21E1B0B9415000C005E442A004B4645
:202E0000013521002020B847B542F7D1A0460B9C002C20D0454636195346321B013C185D42
:202E200029004B46B847002CF6D12B00350098460D9B9B070FD55B46EC1A0C9BA3420AD964
:202E4000464698462A004B46310020200134B84701354445F6D32800F0BCBB46B246A94664
:202E6000A046F8BD16001500002CD3D1E0E716001500002CCED1EEE7F0B54546DE46574639
:202E80004E46E0B585B09C4610AB1B78149F934698460F9C129E139DBB074CD4002D42D10D
:202EA000B44248D201233B4099460E9B013B9A46302304E0524601341355A64201D9202C45
:202EC000F8D14B46002B00D183E00E9B013B99463023A54205D82EE04A4601341355AC4235
:202EE00029D0202CF8D1FB060CD57B0554D4A64263D0A54261D0119B102B50D0022B57D0AC
:202F0000202C32D1202301930E9B5A460093039763460295FFF75AFF05B0F0BCBB46B2462C
:202F2000A946A046F0BD01233B40994601233B422AD1B442B9D3FB061CD57B05DBD4002C26
:202F4000D5D1119B102B5BD0119B022B6BD0302301240E9A13704346002B10D17B073ED5D8
:202F60002B260E9A631C1655CDE72300013430260E9AD654202CC5D04346002BEED02D2694
:202F80000E9A631C1655BEE74346002B2FD0013DB44200D289E798E7119B102BB2D1BB0627
:202FA00037D5202CAED058230E9A13550134A7E7202CA7D02300013407E0631E012CC0D0AD
:202FC000119A102A31D0022AD1D162260E9AD65496E7FB06CED57B0500D488E78BE723006A
:202FE0003E0790D520260E9A013316558BE70C233B405A1E9341ED1AB44200D255E764E7DC
:20300000BB060ED478230E9A0224137030235370A1E7202C00D175E778230E9A135501342A
:203020006EE75823EFE76033EDE70E9AA61E91464E44BA0602D55822327098E77822327040
:2030400095E7C04610B5002800D110BD01F046FDFBE7C0460B0010B5002802D049681B6849
:20306000984710BDF0B55746DE464E464546E0B595B083460F00924698461E9A1F9B100035
:203080001900209EFFF7CFFA002800D0EAE11E981F990122C54B5242FFF7AAFA002800D010
:2030A00014E11E981F990122C14B5242FFF7B6FA002800D0E9E01E981F990022BD4BFFF7F5
:2030C000ADFA002800D0C8E01E981F990022BA4BFFF78EFA002800D0BFE01E981F9900226F
:2030E0000023FFF785FA002800D0E4E000230B93229B5B0500D406260024302307E0172108
:2031000006AA013452181355013E202C01D0092EF5D81E981F99FFF7AFFAA84BF2009B18F3
:203120001A685B68050008920993FFF78DFA02000B001E981F99FFF7E8F9089A099BFFF704
:2031400014FA06900791FFF7BBFA8146FFF778FA02000B0006980799FFF7D7F90022984B43
:2031600006900791FFF75AFA002800D10DE101239C46E1444846FFF763FA02000B00089837
:203180000999FFF73BFA002802D0002399460135002E00D1D9E006954D46B94614E006AAA7
:2031A000944617230A216344280001341F19FEF771FF3031397028000A21013EFEF76AFF35
:2031C000092D00D817E10500202CE8D14F46069D20240CAE06AA17239446634499465B46BE
:2031E000B34606930FE04B4628000A210134E618FEF728FF3031280031700A21FEF722FFB0
:20320000051E00D1E4E0202CEDD1069B5E469B460323229A1340012B18D1219B002B15D0B0
:203220000B9B002B00D1FDE0219B013B2193202B0CD93023219A07E0172006A90134091802
:203240000B55944200D3CCE0202CF5D1229B01940393219B0096029322E0229B52460493EA
:20326000219B3900039358461E9B1F9C029600930194434600F04AF90400200015B0F0BCA0
:20328000BB46B246A946A046F0BD229B5B070FD403224C4B22990192039121990093029133
:2032A0004346524639005846FFF790FD0400E4E70422454BEEE71E9A1F9B00200021FFF790
:2032C00024F901231E901F910B9311E7229B54469B0711D1219B042B0ED9219B55469C46D3
:2032E0005E46043C64442A004346013539002020B047A542F7D1B346344D26002B1F994671
:203300005B46A3461C003200E87843463900013DA04701364D45F6D123005C469B46229B9B
:2033200004349B07A9D55346219AE31A9A42A4D95E4615002200434639002020B04753461E
:203340000134E31A9D42F5D897E72800FFF77CF902000B001E981F99FFF7D7F80022184BB9
:2033600006900791FFF744F90CAE002800D031E7069807990022124BFFF750F9002800D02E
:2033800028E7012301359D4324E70022069807990B4BFFF72DF9002800D0F9E64B46002B74
:2033A0005CD101239C46E144F2E6C046FFFFEFFFFFFFEF7F65CDCD4165CDCDC16086001089
:2033C0000000E03FA48300109C830010AC830010069B5E469B460323229A1340012B00D1D1
:2033E00081E0202C00D131E70B9B002B27D02D23335501342AE74F46069D202C00D1E7E62F
:203400003022331907E0172006A9013409180A55202C00D1DCE6A342F5D12E220CAE0134C3
:20342000F254D7E60C23229A134257D0219B013B2193A34200D9FCE6202C00D106E7229B0F
:203440005B0703D52B2333550134FFE6229B1B0700D4FBE6202333550134F7E6DB0700D41B
:2034600096E69EE7229B55469B0711D1219B032B0ED9219B54469C465E46033D65442200B7
:203480004346013439002020B047AC42F7D1B346B9465F461C4EEC1C2A00B07843464946CF
:2034A0000135B847013EAC42F6D1229BBB464F469B0700D4E1E65346219AE31A9A4200D84E
:2034C000DBE65E4615002200434639002020B04753460134E31AAB42F5D3CEE6219BA34282
:2034E00000D9A6E6B2E6219B002B00D179E70B9B002B97D0219B013B21939C4200D298E6A5
:20350000202C00D073E7A1E6A8830010F0B5DE4657464E464546E0B599B081468B469246A0
:203520009846229A239B10001900FFF77CF8002800D0CAE0229823990122824B5242FFF70E
:203540006DF8002800D0C0E02298239901227E4B5242FFF74DF8002800D0B6E02298239939
:2035600000220023FFF744F8002800D0C9E1229B239C08930994089809998023269ADB00FE
:203580001A400D928022269C1201144022000B94269C07000E001C4200D0ADE00B000343C3
:2035A00000D0D5E0002A00D00AE2220006332493022313400C930223134200D002E2259B89
:2035C000042B00D20FE2043B0B93002304250A930022229823990023FFF70AF8002800D088
:2035E00003E25A4B269A134004930B9B0393249B0293089B099C00930194594643465246D7
:203600004846FFF72FFD02002020269B1F27034059424B415B421840531C08935946434620
:203620004530C8470A9AD317D4185C40D30F0A936B1E0B9308AB9C460025674401E0202DB7
:203640000FD020000A21FEF725FD01357E193031317020000A21FEF71DFD26000400092E9F
:20366000EDD8052306930B9B59460593002304930A3303930A9B4846029310AB0093089AA2
:2036800043460195FFF7F8FB0C9B002B2DD05346C41A259BA34228D94D465F4681461E0019
:2036A000534639001A19202043460134A847A642F6D8534648462599C21A01320023914278
:2036C00000D386E1013018180FE0269B0493259B0393249B0293229B239C00930194434631
:2036E000524659464846FFF7BDFC19B0F0BCBB46B246A946A046F0BD01432BD10B9B22005E
:20370000002B00D154E700230A93249B0A9A0024934200DD85E12298239900220023FEF763
:2037200067FF002800D035E1269B084A02941A408023DB0013430493259B0393089B099C09
:20374000CBE7C046FFFFEF7FFFFFEFFFFFF7FFFF06232493B44B70009C46400D6044FEF74E
:2037600073FFB24AB24BFEF700FFB24AB24BFEF7D5FE3603B14B360B334304000D003800F4
:2037800019000022AE4BFEF7C0FEAE4AAE4BFEF7ECFE02000B0020002900FEF7BFFEFEF775
:2037A0006BFF0A90FEF750FFA84AA94B04000D00FEF7DBFE0022A74BFEF7B0FEFEF75CFFF5
:2037C000A54A0600A54B20002900FEF7CEFE040030000D000C96FEF737FFA14AA14BFEF720
:2037E000C4FE02000B0020002900FEF78EFE02000B0006000F00FEF7B8FE320004000D0020
:203800003B0030003900FEF789FE00220E900F91954B20002900FEF78AFE0022934BFEF78D
:203820007DFE02000B0020002900FEF780FE00228F4BFEF773FE02000B0020002900FEF797
:2038400076FE0D008021040032003B000020C905FEF75BFE02000B0020002900FEF75EFEF2
:2038600002000B000E980F99FEF761FE0022734BFEF754FE7F4B0C9C9C466444002223052C
:20388000FEF773FE06000F0002000B0008980999FEF7AEFE00280AD00A9B3000013B390071
:2038A0000A930022714BFEF742FE06000F000A9A330063323900C62A12D8022226980425B9
:2038C00010400B9A0C90002A25D1259B042B05D9002800D0A1E0259B043B0B93042541E00A
:2038E0000222269810400B9A0C90002A12D1259B052B76D9002872D1259B0525053B0B93D6
:2039000034E0802212069446229B0893239B6344099330E605250B4300D1F6E60898099929
:20392000554A564BFEF772FE002808D0089809990022534BFEF75CFE002800D0E5E6249B0F
:20394000002B1CD00D9B002B19D0249B013B2493259BAB4204D90C9B002B5AD002230C9398
:2039600000230B930A9B002B00D131E60898099932003B00FEF7DBFD0890099128E6259B52
:20398000AB42EDD90C9B002B43D000230B9302330C93E7E78020269B3A4A00061A40802344
:2039A00084460294089C099D2900DB0013430493259B6144220003930B00009201938EE6AA
:2039C0000524A8E600230B930A93023304250C93FEE553468C46013B63441B1A72E60223F2
:2039E0000C930525C2E70423EDE58020089E099F000639008446269A224B614413400493A9
:203A00000B9B32000393249B02930B0000920193F3E5259B5B1B0B93A4E7022304250C938F
:203A2000A0E79C1A013C76E601FCFFFFFB799F501344D33FB3C8608B288AC63F0000F03F9D
:203A40000000F83F61436F63A787D23F71A379094F930A400000E03F1655B5BBB16B024060
:203A6000EF39FAFE422EE63F00002C400000244000001840FF0300002D431CEBE2361A3F7F
:203A800080842E41FFF7FFFFF0B5DE4657464E464546E0B5A5B01E002E9B92460C93CD4ADB
:203AA000CD4B80468B461A60002900D1EAE1002330789946002800D1ECE1C84B4C460B9365
:203AC000C74B454657460E930AE0631C984622003B005946A84744463078002800D187E047
:203AE00001362528F1D108239A46043B9946023B9846013B00229C460D943078711C030023
:203B0000203BDBB2102B03D80B9C9B00E3589F460300303B89460D9C092B3AD90023984617
:203B20002A2800D1C1E000239A462E284BD00300683BDBB2122B1ED80E999B00CB589F469D
:203B400063460E001A43D8E743460E001A43D4E74B460E001A43D0E710230E001A43CCE7DF
:203B600053460E001A43C8E780235B001A43FF3B9C467078E1444E4667284FD82428A4D9FB
:203B80000300253BDBB2422B9FD896499B00CB589F46002394461E0000E00131B3009B193B
:203BA0005B001E180878303E0300303B092BF4D90123624689469C460023B0469A460E0093
:203BC000E1442E28B3D13021802049428C46C000024370784B4684446146092900D86CE154
:203BE0002A2800D17AE101239C464E46E1449EE7A146A846BA46CA4503D801235B425344EC
:203C0000994653464A4659460020C047200025B0F0BCBB46B246A946A046F0BD0300693B13
:203C2000DBB20D930F2B00D94FE7012199408C466D49894661464B4619400F916346494653
:203C40000B4200D028E10D9B0A2B3AD0072B00D03BE70C9B190008C98846002B00D14BE1AC
:203C600021200243914614A98C461F220F2162448C4651460D950C91A24615000F9902E012
:203C800020290CD0130064461C4020003730092C00D80738013168541A090F2BF0D80C9B59
:203CA00054460D9D9A460F9133E10C9B02CB8846002947DB0C9301239C4670784E46E14459
:203CC00031E70C9B02CB14935346002B00D138E19C4608780B000C908C44002801D100F040
:203CE00098FC89466146944603E05A780133002A01D08B42F9D1494662465B1A0C900F937B
:203D0000530500D520E10223180010400D90134200D1CBE30D930B1BB1469A465E460C9892
:203D200022003B003100A84753460134185D0028F6D1B3464E460D9B002B00D0C7E1149B4D
:203D40000C93C9E60C9301239C46283849420243884670784E46E144E5E670786C2800D1B9
:203D60007FE180235B001A43FF3B9C46E14402E780239B001A4301239C467078E144FAE6D0
:203D80007078682800D173E180231A437F3B9C46E144F0E6672800D103E1472800D15AE130
:203DA000452800D15AE10492072142460C9B0392073352468B43190002920CC9280000922C
:203DC00001930C9122003B005946FFF79FFB040082E6C046893A0010A8270020C48400109A
:203DE000088500105485001041900000462800D1DBE00492072142460C9B0392073352461E
:203E00008B43190002920CC92800009201930C9122003B005946FFF725F904005CE6631C92
:203E2000984622003B0059462520A847444653E60C9B04330D93631C9946920700D422E165
:203E40000C9B2200187859463B00A84743464444012B00D885E23300B8462E005F4625009B
:203E60004C46994622004346013439002020B047AC42F7D12C00BB46350047464E460D9BA0
:203E80000C9329E6DB4B3078984600239946002800D012E60024AEE66F2800D188E000D876
:203EA0000BE31023782800D1CFE09A430A239C4600230F930A330D9380E05646B1008919E4
:203EC000490001330E181878303E010030390929F4D9B2461E000133994628E60C9B0236C2
:203EE00002CB8A46C9435046C917084082460C933078731C99461AE610231000984311337C
:203F00001843814680201300C0000340024200D1A9E64B46069308230593534604931023D5
:203F20000393002302930F9B220001931CAB009359463B002800FEF79FFF434604000C93B8
:203F4000CAE501235B42C3E60F9B534501D953460F930223180010400D90134200D1B7E109
:203F60000D93D1460B1B9A463300A1442E0022004D460C98B9465F469B4608E04B463900AE
:203F8000541CB0475346185D002877D022009542F4D15B46BB464F46A94635004C461E0074
:203FA000C9E680231B011A43FDE620231A4320E708239C4600230F9308330D93802311004B
:203FC000DB0019401A4200D116E10D239A431000802302009B001A401492184200D0C2E15F
:203FE000802302005B001A4091460C9A04320F92184200D0B7E2430600D59FE1030600D4D5
:2040000019E30C9B1B880993002B00D0FCE110339843002900D1F7E10023994643460593D3
:20402000534604930D9B069003930023D2E0582808D0622867D102239C4600230F9302338C
:204040000D93BBE720231A43103B9C4600230F9310330D93B2E780231B011A4320231A4354
:20406000A1E6C0239B001A43F31C9946B07882E5C0231A43F31C9946B0787CE535005E46D1
:20408000BB464F4657E64346012B00D863E1631E43449A463300B9462E005F4655469B4613
:2040A000A24622004B46013439002020B047AC42F7D135005E46BB464F46A14654460C9B73
:2040C0004A46187859463B004444A847D7E6A1460F9B984500D832E64444E41A3300B8469D
:2040E0002E005F4625004C46994622004346013439002020B047AC42F7D12C00BB463500EF
:2041000047464E461BE680231000DB0018401A4200D10FE1112118008A430D920D9A80237A
:2041200011009B0019408C461A4269D1802311005B00194089460C9904310F911A4200D035
:20414000CAE113005B0600D5F0E013001B0600D459E20C9B00229B5ED9175A184A4092B266
:20416000D90F0C91002B00D1F9E1100014AA944642461F23149252466344A84616944D4662
:204180000400B946B2461F00159201E0202D0FD020000A21FDF77EFF01357E1930313170C6
:2041A00020000A21FDF776FF26000400092EEDD8149B4F46A94645469846159B56469A465D
:2041C000169C0D9B069343460593534604930A2303930C9B02934B4601931CAB22000093FB
:2041E00059463B002800FEF747FE0F9B04000C9372E4C046C92D00100C239A431000E7E6EB
:2042000007220C9B07339343013294469C4462460C920CCBD90F0F911100194300D191E07D
:20422000D917139112915140109113995940119110981199129A139B801A994110901191CC
:2042400014AA0023944642469946149252461F336344A846B24616944E46109C119DB94688
:2042600015921F0001E0202E10D0200029000A220023FDF74DFF013630322B00BA550D00B1
:2042800022000400002BEED1092AECD8149B1094119545469846159B4F46B14656469A46FD
:2042A000169C0D9B069343460593534604930A2303930F9B02934B4601931CAB2200009317
:2042C00059463B002800FEF7D7FD0400FFF704FC0F9B984500D8C1E18023DB000D93434671
:2042E0000F9A1B199B1A994633002E004D46B9465F469B460C9122004B46013439002020D6
:20430000B047AC42F7D143460C9901330F930B7835000C935E46BB464F46002B00D10EE56C
:204320000D9B002B00D1F6E4002319E60C9B1B781A0015E710239A430D92EFE60C9B1B78CF
:20434000099361E6002399460028AAD1002200231092119374E70C9B2200187859463B00BC
:20436000A8474C468BE50C9AFA3BFF3B07329A430133994691444B460C931368526815922D
:204380001A4306D11032904300220992002900D081E06122810600D54122D2B20A9214AA9D
:2043A00091460A9A00210A3A149242461792524618925A460991B3461F311E000F9B49442C
:2043C000BA4619941A950024674698468946159D16901B920AE03032D2B24B4601341A55F9
:2043E000A8454AD0202C4AD006000D003A00002330002900FDF78CFED2B2092AEBD9149BDF
:204400009C466244D2B2E8E76123820600D54123DBB20A3B0C93434614A91F228C4615930A
:2044200053466244A046B2464C461797A9461700099D0D9E1490169308E03033DBB201346E
:204440003B55B5420ED3202C0CD0050031002800FDF720FECBB20929EFD90C9A94466344BE
:20446000DBB2ECE7159B4D46A14644469846169B564614989A46179FD0E5B742B2D9179BD0
:2044800057469846189B5E469A461B9B09949B461698199C1A9D43460593534604930D9B23
:2044A0000690039300230293099B05E70F9B984500D914E701330F932DE410231100994326
:2044C0000D91692800D0BAE080231000DB0018401A4200D122E61DE60C9B1B68DA0F110001
:2044E000002B00D18CE0DA179818504014AA914642461F23149252464B44A046A946169775
:2045000004006546B2461F000C91159201E0202D0FD020000A21FDF7BDFD01357E1930315D
:20452000317020000A21FDF7B5FD26000400092EEDD8149B444698460C9BAC461900159B4A
:2045400056464D469A46169F0D9B0291069343460593534604930A23039363463CE60028BC
:2045600000D02EE602E60C9B1B689946002B03D110339843002938D16123820600D54123D2
:20458000DBB20A3B0C9343461693534614A91F228C4617932B006244A0464D46B246189774
:2045A00099461700149C0D9E159008E03033DBB201343B55B5420ED3202C0CD00500310032
:2045C0002800FDF767FDCBB20929EFD90C9A94466344DBB2ECE7169B149444469846179BEA
:2045E00056464D469A461598189F43460593534604930D9B0690039300230293149BEBE5EC
:204600000028A1D172E70C9B1B68D9175A184A40A6E580231000DB0018409C460F901A4243
:204620000FD00220030013400F93104219D00023A1460F934CE50C9B1B680993E4E40A00D1
:2046400034E40223180010400D90134200D03EE54346002B00D042E6FFF771FB01330F93EC
:204660007FE463460D93F3E710B50C0084B00394012402A902900093034813006242FFF72B
:2046800003FA04B010BDC0465530001010B5094A0300146884B0002C08D001220091064830
:2046A000524203A9A047012004B010BD00F060FA0020F9E7A82700204530001000BEFDE7D1
:2046C000094A03001068002805D00849C3188B4207D81360704706480449C31810608B425A
:2046E000F7D901204042F5E7A4230020000004201C280020030010B508001100002B05D11A
:20470000044B1A685B6800F04BF910BD01204042FBE7C046508400100300013B10B5080089
:204720001400012B06D801230022210000F0BAF8200010BD01204042FBE7C0460120404237
:204740007047C046012040427047C04610B5FFF7B5FFC04670B5FDF79DFB074D074EB54276
:2047600009D20024013E761BB60808CD984723000134B342F9D170BDD47F0010E07F0010E2
:20478000030010B5080011001B68984710BDC046F0B5C64600B5437D07000C001600002B89
:2047A00046D0002A17DD0B780A2B24D000239846012E13D001252900635C01350A2B26D097
:2047C000B542F8D1464509DCA419013C23780D3B5A4253413B7580BCB846F0BD4346E01884
:2047E000A419F11A013C3B68984723780D3B5A4253413B75EFE7037D002BD7D102210F48CC
:204800003B689847012EDFD001239846D2E7631E5B5C0D2BD4D0884504DA4346C91AE0185A
:204820003B689847022105483B68A8469847C7E70368110020009847CDE7C046B0860010ED
:20484000F0B5C6460B6806000C0000B5802B06D05A1C2260E418267180BCB846F0BD0F4B20
:204860001D68002D16D00B1D98460D4F02E02D69002D0FD02B68002BF9D03B68002B01D094
:20488000AB42F4D1280041462268FFF781FF2D69002DEFD101220023DBE7C0469023002053
:2048A0009C230020F0B54546DE464E465746E0B583B091461C0080460D00FDF711F80023E6
:2048C000304A12184B41002B02DA01222E4B52422E4908008A4603F047FB07006B1C03D18B
:2048E000404603F0AFF80500002C27D0284E294B1C68002C18D04B46002B21D1264B9946F0
:2049000002E02469002C0FD02368002BF9D04B461B68002B01D09C42F3D120002A0041461B
:20492000B0472469002CEFD1002F26D1280003B0F0BCBB46B246A946A046F0BD174ED6E7BD
:20494000154B99460A239B4602E02469002CEBD02368002BF9D04B461B68002B01D0A34240
:20496000F3D12A0041462000B0476B465A462000DA71D91D0122B047E7E7504603F0B4FADA
:20498000D4E7C04640420F00FFFFFF7FDC15002091470010902300209C23002081470010C6
:2049A000F8B557464E464546DE4698461A4BE0B59B461A4B07000E0091469A46184D5B467A
:2049C0001C68002C03D115E02469002C12D02B68002B01D0A342F7D1A368002BF4D031005C
:2049E000380098470028EFDDF0BCBB46B246A946A046F8BD53465B6A984508D85246926ACE
:204A00004A4502D302204042EEE79845FAD101200021FCF76FFFD2E790230020004005405D
:204A20009C2300200A4A1368002B05D10CE01A001B691032002B07D08342F8D1002902D16F
:204A400018691060196170470029FCD01060FAE79023002010B500F029FB10BDF0B5474643
:204A6000CE461A4B80B51A685B689146984683B0174F184D01AE3C68002C03D115E02469BB
:204A8000002C12D02B68002B01D09C42F7D1A368002BF4D00121300098470028EFDD30780C
:204AA00003B0C0BCB946B046F0BD0B4B5A6A904507D89B6A4B4502D302204042F0E790459D
:204AC000FAD101200021FCF715FFD4E750840010902300209C23002000400540F0B5CE4633
:204AE000474680B583B06B460600DD1D2870FCF7F7FE0023194A12184B41002B02DA01222A
:204B0000174B524217490800884603F02DFA164B81461C68002C14D0144F02E02469002C95
:204B20000FD02368002BF9D03B68002B01D09C42F4D1200001222900FFF72AFE2469002C92
:204B4000EFD14B46002B05D1300003B0C0BCB946B046F0BD404603F0C7F9F5E740420F005C
:204B6000FFFFFF7FDC150020902300209C23002070B5040002F066FF012301000500012229
:204B80002000FFF78FFE084B1C68002C06D06368002B05D098472469002CF8D1280070BD18
:204BA0002469002CF3D1F9E790230020F0B5CE46474680B5A3B004000D00FCF791FE002341
:204BC000274A12184B41002B02DA0122254B5242254E300003F0C8F9002322000193070049
:204BE0002B00224801A9FFF73FFD214B804699461C68019B002B1AD0002C2FD01D4D02E087
:204C00002469002C0FD02368002BF9D02B68002B01D0A342F4D12000019A02A9FFF7B8FD33
:204C20002469002CEFD14B461C6800230193002C06D06368002B0BD098472469002CF8D1FB
:204C4000002F07D1404623B0C0BCB946B046F0BD2469ECE7300003F047F9F3E70194EFE7CE
:204C600040420F00FFFFFF7FDC15002041480010902300209C2300200FB400B583B004A973
:204C800001C90191FFF792FF03B008BC04B018477047C0460022014B1A70704717280020DC
:204CA0004B790020FF2B0BD18B79002B08D1CB79012B05D1082A03D9024B8A7809301A709C
:204CC0007047C046172800200120704710B5012913D10E495379107909781B02034300205D
:204CE000994200D010BD5378012B08D0022BF9D1642200210020FDF717F80120F2E79178A9
:204D00007E33020019400138FDF796F817280020004870477C87001070B5050014000120FC
:204D2000012909D153780020012B05D1637912791B021343072B00D070BD21002800024AE4
:204D40009F3301F055FAF7E7D48600100123037000487047B48600104B780A781B02134361
:204D60008A7810B512041A43CB781B0613439622D200934200D010BD00220120110040426D
:204D8000FDF75AF8024B1860024B19607047C046302300203423002010B5024B1878FBF707
:204DA0007FFF10BD18280020154B70B51A68002A22D0EFF3108172B610680028FCD0BFF36C
:204DC0005F8F00200F4A596010701B68BFF35F8F186081F31088002400250B4E3078FBF750
:204DE00053FF002804D1002400252900200070BD3078FBF755FFF8E7FA240025A400ECE71E
:204E0000CC270020192800201828002070B5040000200E0001F00AFB002834D0002001F034
:204E20001BFB00282FD0FCF75BFD0023174A12184B41002B16DB164D280003F095F8002861
:204E400021D0002001F0F2FA00280FD101200021404200F001FD03246442280003F044F886
:204E6000200070BD01220B4B5242E4E7002001F0F3FA0028EAD021003200002001F0F6FAD9
:204E8000041EEAD1E7E703246442E9E740420F00F4270020FFFFFF7F10B5FCF721FD002389
:204EA0000D4A12184B41002B02DA01220B4B52420B4C200003F058F800280CD001200021D1
:204EC000404200F0C9FC002001F014FB0028F5D1200003F009F810BD40420F00FFFFFF7F9F
:204EE000F4270020F8B5DE46574680B505000C00FCF7F6FC0023364A12184B41002B02DA7E
:204F00000122344B5242344908008A4603F02CF8002803D1C0BCBB46B246F8BD002001F0B8
:204F200085FA00284AD00026002C43DD2B4B9B4614E0A919002001F017FB070001200021C5
:204F4000404200F089FC002001F0D4FAFCF7C8FC224BF61918605960B4422BDD002001F008
:204F600023FBA71B0200B84200DD3A00002AE0D101200021404200F06FFC002001F0BAFA7F
:204F8000002001F053FA002814D0002001F00CFB0028E1D1FCF7A4FC5B460F001A685B682D
:204FA000002184460E4812184B419F4202D8D3D19445D1D9504602F097FFABE70020002127
:204FC000064B18605960504602F08EFFA2E7C04640420F00FFFFFF7FF427002088170020A4
:204FE00020A1070030B52A4C85B00021200002F0A3FF00281CD1274B1A68002A16D0EFF389
:20500000108172B610680028FCD0BFF35F8F01242148596002781B68D2B20470BFF35F8FEF
:205020000020186081F31088002A17D005B030BD01200021404200F00FFC002001F00CFA43
:205040000500200002F050FF002DEFD0134B1B68002BEBD0124A10689847E7E7FCF72AFA9F
:205060000400FCF73DFCFA220023920012184B41002B02DA01220B4B52420121029100218F
:205080000191094920000091FCF718FACEE7C046F4270020CC270020192800203023002099
:2050A00034230020FFFFFF7FA94D0010D02310B51B0684B01C68FCF7FDF9FCF7F9FAA042B5
:2050C00002D0002004B010BD294B002100201B7801F05EFD27480368002B45D00120FBF79C
:2050E00077FFFF23244C254920701840FBF7F2FD20780121FBF7B6FD0520FBF7D9FD0028FD
:2051000024D1082200211E48FDF752FEFCF7D2F90400FCF7E5FBFA220023920012184B4189
:20512000002B02DA0122174B52420121029100210191154920000091FCF7C0F90028C0DB69
:2051400012480121FFF76EFC0120BBE70120FBF757FD0B4B01001800FBF79CFF0022052006
:205160000B49FBF7E1FDEBE7FBF778FFB6E7C04638890010F427002018280020E54F00107D
:20518000CC270020FFFFFF7FA94D001040100020994D001000487047188800100048704766
:2051A000C487001010B5040017480378002B20D0002C06D1154B16484380063BFF3B038054
:2051C00010BD052C1DD8134BA400E05812490123013804E001330A800231142B0DD0C25CDB
:2051E000002AF7D1C022DBB25B00920008481343E5E7112100F01AF8DAE7CA2304489B0026
:20520000DDE70020DCE7C046002800200904000068230020AC8700106A23002010B50248E2
:2052200000F0D8F810BDC046E427002030B54B1E012900D1A7E0664A11780D092C00303401
:205240009F2900D9A2E00470012B00D1BEE00F21147821400C003034092900D998E0447058
:20526000022B00D1B2E054782509290030319F2C00D990E08170032B00D1A7E00F212140FE
:205280000C003034092900D987E0C470042B00D19CE094782509290030319F2C00D97FE0B5
:2052A0000171052B00D191E00F2121400C003034092900D976E04471062B00D186E0D4783F
:2052C0002509290030319F2C00D96EE08171072B00D17BE00F2121400C003034092966D863
:2052E000C471082B00D171E014792509290030319F2C5FD80172092B68D00F2121400C0061
:205300003034092958D844720A2B5FD054792509290030319F2C52D881720B2B56D00F21B4
:2053200021400C00303409294BD8C4720C2B4DD094792509290030319F2C00D907310173A8
:205340000D2B43D00F2121400C003034092901D937310C0044730E2B38D0D1790C09220008
:2053600030329F2900D9073282730F2B2ED00F220A4011003731092A01D830321100C1731D
:20538000102B23D010300023037030BD07345AE737310C0063E707316CE737310C0074E788
:2053A00007317DE737310C0085E707318EE737310C0095E707319DE737310C00A3E70731E2
:2053C000AAE737310C00C4720C2BB1D1C018DAE7E427002010B588B004000D220021684616
:2053E000FDF7E6FC0D22002104A8FDF7E1FC4B236A466846137004A90D2202F06DFD15214D
:20540000082220006944FDF7D9FC08B010BDC046F8B500F047F90C23194DFF22AB67052077
:205420001849FBF781FC184C402200212000FDF7BFFC4027002301262121144A6670278315
:20544000A260136063545F31618445396354104A10496360E2602787A1620B606362E26299
:2054600002F05AFD80239B052E64EB6490230A4A0120EA508022094B5202DA64F8BDC0461A
:2054800000001150F9040020A823002084001050000110508000105010D00100002011501C
:2054A00010B501210520FBF7DDFB10BD10B500220021024800F016F910BDC046C82300201A
:2054C000044B1970002904D080219023024A8902D150704713280020002011500B785B0634
:2054E00002D14B78052B00D070478A78014B1A60FAE7C04600001150F0B5C646C87800B5A9
:205500008007830F1800012B60D08F780A794B797F213940FC091B024E001343334D321906
:205520005201AA18977001276740577000275B055B0DD7701383D076B846CA00012C32D0B0
:205540002B4FBC468F016244BC46AC446746BA6047461760002932D0264AC90090466246FA
:20556000414451603F223F339343022837D0224937190A687F01D3180B602049EF19FA604D
:205580008B422ED836197601AD19EB7E1C499B064A4013438022120613436A6813600120E7
:2055A00080BCB846F0BD174FBC468F016244BC46AC446746BA6247461760002908D1002382
:2055C00064012C196360104BE360E8E70020E7E70B4AC9009046624641445162C2E75B002B
:2055E000C5E7FCF751FCFA68CCE7C046A82300208400105004001050B0270020FF0F10500C
:2056000000001050800010500001105010B502F083FC10BD10B57F200C0020404000E409E9
:20562000110000191A00034B4001C01800F05AF8012010BDA82300207F23180000B50840ED
:2056400083B00B4204D14B424B41084A013393668022C9094000064B401840010021C018C6
:20566000120102F091FC03B000BDC04600201150A82300207F22130010B50B400A4200D1D5
:2056800010BDC9095B005B1804485B01C018002300220349C37002F077FCF1E7A823002031
:2056A000FFF7FFFF80220A4B520410B51A60094B09491A6010000B689843FBD1802200215D
:2056C00052010648FDF774FB0922054B5A6710BD00E0004000F0004008C000400000105005
:2056E00000001150002310B5C3820133828283760161040002F030FC002804D08021902317
:20570000074A8902D150200002F0FEFB002802D00123237710BD200002F02EFCFAE7C046D9
:20572000002011507047C0467047C04600207047002070477047C0467047C0467047C04689
:205740007047C046024B5878431E9841C0B27047481E0020024B18784007C00F7047C046D6
:20576000481E0020F0B5D6464F464646C0B52F4B07009A461B780E00FF2B50D1002941D0C5
:20578000002154222A48FDF713FB0022294C2A4B20001A70FBF762FC284B1C60284C200075
:2057A000143CFBF769FC200001F0FAFD254B264D1C60264B002B04D02800FFF7C7FA244B1D
:2057C00018602449002489462149002388462A7810E043461B6862019B18002B12D05B6812
:2057E000002B0FD098472A780134E4B2511C2300A14209DBA242ECD89B1A5B014B445B68F1
:20580000002BEFD100200BE05346310038001F70FFF7FEFD0028F5D03800FFF741FE012095
:20582000E0BCBA46B146A846F0BDC04674100020481E0020401E0020142800209C1E002056
:205840006C100020A01E0020122800204D4D0010981C0020D4880010F0B5DE4657464E4690
:205860004546E0B5C84B91B002931B78FF2B00D13EE1C64BC64E9B465F46C64B0DAC019369
:20588000C54B009335686A69EFF3108172B61368002BFCD0BFF35F8FA9612800210001F004
:2058A000AFFB6A69AB69BFF35F8F0021116083F31088002800D11BE16378082BE2D89B00BF
:2058C000FB589F466368002BDCD0A0689847D9E77F222179AF4D0A405300EB189846C809C1
:2058E000804440460123303005799D430571057903339D430571002A00D100E14346A74AA6
:205900001B7D1278934200D3EFE0A54A5B011568ED18002D00D1EBE0A36862792078AD69C4
:20592000A847AFE79F4A1378002B00D1E0E01378013BDBB213701378002BA3D10122954DAC
:2059400001212B78042013432B703423EA5C8A43EA54EA5C8243EA540133EA5C8A43EA54F7
:20596000EA5C8243EA54237800209B4600F09EFC602223791A40602A00D1EFE0402A00D1DB
:20598000F5E0DB06DB0E012B00D113E1022B00D1C7E0002B00D0E1E0202A00D11CE2002AD3
:2059A00000D0DBE06379092B00D9D7E07E4A9B00D3589F46774D2B78DB0700D462E7FFF7ED
:2059C000BFFE5FE7019BDB78DB0700D45AE76068FFF7AAFE56E76F4D2B78DB0700D451E7EE
:2059E00028780007C00FFFF7A9FE4BE723786A4999468B46694B6A4998468A4639001A7884
:205A000047460023B04600254E46894610E053461B686A019B18002B00D176E0DB68300069
:205A200098473A780135EDB2511C2B008D4244DC9542ECD39B1A5B015B44EFE72378584921
:205A40009946564B8A4698463100BB464E461A7800250023474689460FE053461B686A01A6
:205A60009B18002B55D0DB68300098473A780135EDB2511C2B008D4207DC9542EDD39B1AB4
:205A8000009A5B0194466344EDE7019D542200212800FDF78DF91022FF214448FDF788F991
:205AA00028002022FF2114304E465F46FDF780F900F0F2FBFFF740FEE4E6364D542200217D
:205AC0002800FDF775F91022FF21281DFDF770F928002022FF21143046464F46FDF768F904
:205AE00000F0DAFB2379AB70CCE6501C984213DA11B0F0BCBB46B246A946A046F0BDA36852
:205B00006279207800F0E6FBBCE646464F46214DE6E74E465F46CBE71F4D9B1A5B015D1965
:205B2000FAE67023217A0B4218D1C80982460F330B405B0098461948EB1853441B7D0078B7
:205B40009946834266D216485B01006881469944002A00D15FE14B46002B68D120780021BA
:205B6000FFF76AFD80212078FFF766FD8AE6104800F09CFB012158460EAAFFF7CDF800288C
:205B800000D07FE6EAE7C046741000202C880010A01E0020481E0020D48800101228002067
:205BA000981C002014280020508800104C1E0020194D0010237A0F2BD0D8CF4AEB181B799E
:205BC0001578AB423ED3691C9942C7DB5D1BCB4B6D01ED18686900F069FB012158466B697E
:205BE0000EAA9847002800D04CE66022150023791D401A42B2D163790A3B012BAED800F0B2
:205C000055FB63790A2B00D199E158460EA900F0D9FA37E6431C4B4500DAF7E04B461B1A3D
:205C20005B019946B5488144002A00D1F3E04B46586900F03BFB4B46012158465B690EAA54
:205C400098479CE7AE4A5B011568ED18002DC1D184E7A37999466B789945D6D06B78002B72
:205C600000D033E14B466B70002B00D12BE148460138C0B2FFF792FA002800D17EE14378FE
:205C80000793022B00D079E10122C179B1468B11491113400A40302112015B0113432A7874
:205CA000A8468A4313432B7009239A4682445646BA46C37882781B021343C31805938E4BD6
:205CC00004938E4B08938E4B09938E4B0A93059BB34200D855E1737801220B2B03D1337868
:205CE000F278F6187378042B00D044E1059B00279B1B9BB20693049B0B921D780023039330
:205D00001BE0099A7B011568ED18002D00D132E1310058462B69069A98478446082803D91E
:205D2000069A824200D313E1049B01371D78FFB26B1C03979F4200DD1DE1BD42E1D8039BE8
:205D40005D1B089B6D019C466544E1E76B780CAA02321370584601230EA900F049FA91E5F5
:205D6000E3881A0AD8B20F2A00D9F7E666499300CB589F460EA800F09FFA5846A179FFF7E4
:205D800095FB02222B7813432B707BE5E388012B00D0E3E608222B78584693430EA92B7098
:205DA00000F010FA6EE5022029780CAB9A1C8B068908DB0F01400B431380584602230EA9BE
:205DC00000F016FA5EE5E388012B00D0C6E608222B7813432B7018E7237A0F2B00D9BDE65D
:205DE000EB181D79444B1B789D4228D2444B6D011B685D19002D00D1B0E6686900F056FA74
:205E0000012158466B690EAA9847B8E6002A00D0A4E60023994662790220130003928343C8
:205E2000012B15D0002A00D098E62B004344534430331B790CAA9B07DB0F0232BCE75A1C0A
:205E4000AA4200DA8AE6ED1A2C4B6D01ED18D4E7E388002B12D1029B1878039B012B23D0FD
:205E6000FFF7EAFB43460221EB18534430331A790A4301211A711A790A431A714B46002BEA
:205E800000D1FFE4586900F011FA4B4601215B690EAA58469847002000F008FA3523EB5C35
:205EA000DB0700D5EEE4B0E6FFF7E4FB43460221EB18534430331A798A431A711A7903992B
:205EC0008A431A71DAE7FFF737FC9EE600215846FFF7F6FA5846FFF799FBAB780749039326
:205EE0000491054B064998461A780591002329001D008A461BE0C04612280020D488001068
:205F0000981C00205C1E002078880010059B6A011B689B18002B4DD0DB6858469847434631
:205F20001A780135EDB2511C2B008D422EDC9542ECD39B1A049A5B0194466344ECE70CAB39
:205F40009A1C584601230EA9157000F051F999E40B9A012A4FD0002A3CD00023B07804E082
:205F60000133DBB20F71934234D2C118C9B241440D79FF2DF4D04E464546574600236B70FC
:205F8000ECE54E465746FFF7D5FB3EE65546542200212800FCF70CFF1022FF21281DFCF733
:205FA00007FF28002022FF211430FCF701FF039BAB7057E65546FAE7FEF7AAFE021E00D11A
:205FC000CCE5D37891781B020B4358460EA900F00FF9D4E565463B002A0031000A9800F078
:205FE0007FFEAC46049B039A1B7866440133934200DB6CE6BFE7174B29699942ADD1079AEF
:20600000ABE7FFF793FB021E00D1A7E5584613780EA900F0EDF8B2E52189FFF7C3F8021E26
:20602000F4D19BE5022A0FD0FFF782FB021EC8D194E5FFF7AFF8021E00D18FE51223584696
:206040000EA900F0D5F89AE5FFF7A8F8021EB8D184E5C046A9660010F8B557464E46DE467E
:2060600045460C00E0B516001F00002A3CD0702398461E4B00259B461D4B9A461AE05B46C6
:206080001B78200099465346997800F0EBFD00281CD021004846FFF72FFA002816D0A378E1
:2060A000DA09012A19D00A9A013513702378E418AE4219DD6378052B08D1E3789B079B0F84
:2060C000BB4203D14246A3781A42D8D00020F0BCBB46B246A946A046F8BD0B9A013513709B
:2060E0002378E418AE42E5DC0120F0E774100020481E0020702270B58B780C001A4201D043
:20610000002070BD064B20001D78064B997800F0A9FD0028F4D021002800FFF7EDF9F0E74C
:2061200074100020481E00200B007F2010B51840DB0934334000044AC018044B1168C0181D
:2061400000F04CFD10BDC0469C1E0020481E00200B007F2010B51840DB0934334000044A33
:20616000C018044B1168C01800F060FD10BDC0469C1E0020481E002070B57F240F480C40BC
:2061800064000419CD09641930342079C00701D5002070BD012625790948354300782571A8
:2061A000FFF738FA0028F4D101222379934323712379033293432371EAE7C046481E002009
:2061C0007410002070B5094C0600082220000D00FCF7F4FD00238021E360A3602B78300083
:2061E000994300220023FFF7C7FF70BD281E0020F8B5CE4647469046254E80B58146082272
:2062000030000D001F00FCF7D9FD4346B3600023F381EC79AB7924021C43231CBC4200D902
:206220003B1C9FB2B381002C0DD0002F17D04246002A2BD0402F1BD89FB233787F2B1CD8BA
:206240000021144A0FE080212B780022994348460023FFF791FFC0BCB946B046F8BD7F238F
:206260000022317899433B004846FFF785FFF2E740239FB233787F2BE2D9064C3A00414684
:206280002000FCF79BFD80212200ECE70020E2E7281E0020E81D002010B5142200210248E3
:2062A000FCF786FD10BDC046281E0020014B18617047C046281E002010B5054C0100082206
:2062C0002000FCF77BFD0023A360E36010BDC046281E002070B5384C1D0023780600DA0947
:2062E000C9098A4210D00020002D00D070BD21003000FFF7F3F82369002B03D022000321D4
:20630000300098470120F1E77F2B06D8A068002834D02A002949FCF751FDE289A1685219FD
:20632000E38892B24919E281A160934214D03F2D12D9A389981A051C80B240282AD82078A5
:20634000ADB27F2828D800219A4232D01B4A2B003000FFF711FFC9E72369002B05D0220014
:2063600002213000984700280AD0802123780022994330000023FFF7FFFEB7E70020B5E70F
:2063800000213000FFF758F930008021FFF754F90120ABE74025D2E79A4207D0074C2A0050
:2063A0002000FCF70BFD80212200D0E780210022CDE70022CBE7C046281E0020E81D00206C
:2063C00070B50400FFF7BEF9002800D170BDFFF7C1F90028FAD1C8236343124DEE18F178BF
:2063E0000029F3D010335D19280000F0F3FD3F28ECD90020F178FFF797FE0028E6D02800AA
:2064000000F0E8FDF1783F2807D9074BE201D21800204023FFF7B0FED8E70020FFF798FE46
:20642000D4E7C046201D00209C1C002010B50400FFF788F9002801D1002010BDFFF78AF9C6
:206440000028F9D1C8226243024B01309B181B791840F2E7201D0020C82310B543430248E8
:20646000181800F099FD10BD301D0020F8B5C824802344431C4F103405003C195B029A4227
:2064800000D31A4A200092B200F008FE0600FFF759F9002801D13000F8BDFFF75BF90028CC
:2064A000F9D1C8236B43FF18FB78002BF3D0200000F090FD3F28EED90020F978FFF734FE7D
:2064C0000028E8D0200000F085FDF9783F2807D9074BEA01D21800204023FFF74DFEDAE7E6
:2064E0000020FFF735FED6E7201D0020FFFF00009C1C0020F8B50400FFF724F9002801D1A5
:206500000020F8BDFFF726F90028F9D1C82565432E00134F2436F619300000F03DFD00288F
:20652000EED07F190020B978FFF7FEFD0028E7D00C4DE401651929004022300000F0AEFDD2
:20654000B978041E08D003002A000020FFF714FE0028D5D02000D4E70020FFF7F9FDCFE751
:20656000201D0020DC1C002070B5C82444430C4B0500E41880235B029A4200D3094A200094
:2065800092B200F051FE0600200000F005FD3F2801D8300070BD2800FFF7ACFFF9E7C04614
:2065A000441D0020FFFF0000C82310B543430248181800F00FFD10BD441D0020F0B5002598
:2065C000184C83B0C82200212000FCF7F1FB164B21001D70FF236371E1235B02A360200091
:2065E00008234022A37338310095073B103000F09DFC270001232100200026004022783132
:206600000093B837243000F091FCC0363800FAF725FD3000FAF722FDE56127622663656386
:2066200003B0F0BD201D00201C1D00200A4A116B136A00290CD0002B07D00023D3615363E3
:206640001363002313620120704753631363FAE7002BF8D0D161F4E7201D002070B50F4C6A
:20666000052200212000FCF7A3FB0D4D2B78DA0707D50C4C9B070CD50121200000F0B0FEAC
:2066800070BD2000103000F08BFE2B78054C9B07F2D4200000F084FEEEE7C046201D0020CE
:2066A0001C1D0020441D0020F0B54B79060083B0022B02D18B79022B03D00025280003B05A
:2066C000F0BD204FBB78002BF7D18B7809253B700C780C196378242B07D00CE02378E4186F
:2066E0005D196378ADB2242B05D19542F6D90020FFF766FEE2E71A00052B15D0042AF6D1B8
:2067000063790A2BF3D1104B277801930133009330000223E119023AFFF79EFC0028CCD070
:206720000E35ED19ADB2E2E721003000FFF7E2FC0028C2D0A3787B7023785D19E41862781C
:20674000ADB2DBE7201D0020221D0020F8B5602314001278050013400020202B07D1304A79
:206760006379277916781B023B439E4200D0F8BD6378222B1AD007D8202B34D0212BF6D1BC
:2067800001293ED00120F2E7232BF0D1012940D00329F7D1234B002BF4D0E178A3780902AE
:2067A0000020194300E000BF0120E0E7012930D00329E7D101252E00A378E478023924029C
:2067C0001C431471264024321000714000F008FE154B002BD6D06208002031002A4000E02C
:2067E00000BF0120C3E701290BD00329CAD10F4B002BC7D0083200201100FEF7ADFA0120FF
:20680000B5E7072321002800094AFFF7F1FC0120ADE721002800FFF7D5FC0120A7E7C046B9
:20682000201D00200000000000000000594D0010281D0020F0B54F464646D646C0B5364D06
:206840008046EA780C001F008A423CD0AB788B4210D00020E0BCBA46B146A846F0BD2F4B75
:20686000002B04D02E4800F0ADFB002851D00020FFF7A6FDAB78A34201D00120EAE7294BCA
:20688000002B02D0002000E000BF0020FFF732FE0028F2D1244C200000F07EFB0028ECD12D
:2068A000002FEAD0BF06E8D1243C4046A178FFF73BFC0028E1D0002300224046A178FFF792
:2068C0005BFC0120C6E79AB210239A46174EAA443100504600F0A8FC154B002BBFD06B7988
:2068E000FF2BBCD0002FBAD0F219914603E001364E45B4D06B7932789A42F8D1504600F05D
:2069000061FB0028F3D15346103B597900E000BFEDE700E000BFAAE7201D00200000000079
